:100000000C9462000C948A000C948A000C948A0070
:100010000C948A000C948A000C948A000C948A0038
:100020000C948A000C948A000C948A000C948A0028
:100030000C948A000C948A000C948A000C948A0018
:100040000C94EC020C948A000C945C030C94360320
:100050000C948A000C948A000C948A000C948A00F8
:100060000C948A000C948A000000000024002700F1
:100070002A000000000023002600290000000000E4
:10008000250028002B0004040404040404040202D4
:100090000202020203030303030301020408102007
:1000A0004080010204081020010204081020000012
:1000B0000008000201000003040700000000000027
:1000C0000000990411241FBECFEFD8E0DEBFCDBFE2
:1000D00011E0A0E0B1E0E0EEF9E002C005900D9281
:1000E000AC3DB107D9F722E0ACEDB1E001C01D9203
:1000F000A238B207E1F710E0C2E6D0E004C02197D1
:10010000FE010E94E804C136D107C9F70E948E03A0
:100110000C94EE040C940000833081F028F48130BC
:1001200099F08230A9F008958730A9F08830C9F09D
:100130008430B1F4809180008F7D03C08091800075
:100140008F7780938000089584B58F7784BD08955C
:1001500084B58F7DFBCF8091B0008F778093B00006
:1001600008958091B0008F7DF9CF1F93CF93DF93D7
:10017000E1EBF0E09491EDE9F0E0D491E9E8F0E012
:10018000C491CC23B9F0182F992319F0892F0E941C
:100190008C00EC2FF0E0EE0FFF1FE458FF4FA5910D
:1001A000B4918FB7F894EC91111108C0D095DE236B
:1001B000DC938FBFDF91CF911F910895DE2BF8CF95
:1001C000CF93DF93282F30E0F901E255FF4F849160
:1001D000F901E656FF4FD491F901EA57FF4FC49158
:1001E000CC23A1F081110E948C00EC2FF0E0EE0FE7
:1001F000FF1FEE58FF4FA591B491EC91ED2381E0E4
:1002000090E009F480E0DF91CF91089580E090E0E4
:10021000FACFCF93DF9390E0FC01E656FF4F249195
:100220008A579F4FFC0184918823D1F090E0880F7A
:10023000991FFC01E859FF4FA591B491FC01E458C6
:10024000FF4FC591D49161110EC09FB7F8948C9166
:10025000E22FE0958E238C932881E223E8839FBFD1
:10026000DF91CF9108958FB7F894EC91E22BEC9346
:100270008FBFF6CF3FB7F8948091E1019091E201F2
:10028000A091E301B091E40126B5A89B05C02F3FE2
:1002900019F00196A11DB11D3FBFBA2FA92F982FAC
:1002A0008827BC01CD01620F711D811D911D42E0A7
:1002B000660F771F881F991F4A95D1F70895AF924F
:1002C000BF92CF92DF92EF92FF920F931F93CF9343
:1002D000DF936C017B018B01040F151FEB015E01A5
:1002E000AE18BF08C017D10759F06991D601ED913A
:1002F000FC910190F081E02DC6010995892B79F7D9
:10030000C501DF91CF911F910F91FF90EF90DF908A
:10031000CF90BF90AF900895FC01538D448D252F51
:1003200030E0842F90E0821B930B541710F0CF968F
:10033000089501970895FC01918D828D981761F0C1
:10034000A28DAE0FBF2FB11D5D968C91928D9F5FD8
:100350009F73928F90E008958FEF9FEF0895FC01B7
:10036000918D828D981731F0828DE80FF11D858D6A
:1003700090E008958FEF9FEF0895FC01918D228DFD
:10038000892F90E0805C9F4F821B91098F73992782
:10039000089585EE91E00E94BD0121E0892B09F4CA
:1003A00020E0822F089580E090E0892B29F00E94C0
:1003B000C90181110C9400000895FC01A48DA80FBF
:1003C000B92FB11DA35ABF4F2C91848D90E0019697
:1003D0008F739927848FA689B7892C93A089B189B7
:1003E0008C91837080648C93938D848D981306C058
:1003F0000288F389E02D80818F7D80830895EF92BC
:10040000FF920F931F93CF93DF93EC0181E0888FCE
:100410009B8D8C8D98131AC0E889F989808185FF9E
:1004200015C09FB7F894EE89FF896083E889F98940
:1004300080818370806480839FBF81E090E0DF9142
:10044000CF911F910F91FF90EF900895F62E0B8D95
:1004500010E00F5F1F4F0F731127E02E8C8D8E1150
:100460000CC00FB607FCFACFE889F989808185FFB7
:10047000F5CFCE010E94DD01F1CFEB8DEC0FFD2F0A
:10048000F11DE35AFF4FF0829FB7F8940B8FEA8972
:10049000FB8980818062CFCFCF93DF93EC01888D81
:1004A0008823B9F0AA89BB89E889F9898C9185FDEF
:1004B00003C0808186FD0DC00FB607FCF7CF8C917D
:1004C00085FFF2CF808185FFEDCFCE010E94DD0157
:1004D000E9CFDF91CF910895FC0101900020E9F769
:1004E0003197AF01481B590BBC0185EE91E00C948C
:1004F0005F018F929F92AF92BF920F931F93CF9302
:10050000DF93CDB7DEB7A1970FB6F894DEBF0FBE6D
:10051000CDBF19A2423008F44AE08E010F5D1F4F93
:10052000842E912CB12CA12CA50194010E94C6040B
:10053000E62FB901CA01EA30F4F4E05DD801EE9388
:100540008D01232B242B252B79F790E080E0109749
:1005500019F0CD010E946C02A1960FB6F894DEBF8F
:100560000FBECDBFDF91CF911F910F91BF90AF9084
:100570009F908F900895E95CE1CFCF92DF92EF9248
:10058000FF92CF93DF936B017C016DE285EE91E0EA
:100590000E94FF01EC0166277727CB016C197D09CA
:1005A0008E099F094AE00E9479028C0F9D1FDF91FE
:1005B000CF91FF90EF90DF90CF900895CF93DF938E
:1005C0000E946C02EC0182E191E00E946C028C0FAF
:1005D0009D1FDF91CF9108951F920F920FB60F923A
:1005E00011242F933F938F939F93AF93BF93809149
:1005F000DD019091DE01A091DF01B091E001309129
:10060000DC0123E0230F2D3758F50196A11DB11D04
:100610002093DC018093DD019093DE01A093DF0144
:10062000B093E0018091E1019091E201A091E3019A
:10063000B091E4010196A11DB11D8093E101909359
:10064000E201A093E301B093E401BF91AF919F91C8
:100650008F913F912F910F900FBE0F901F90189583
:1006600026E8230F0296A11DB11DD2CF1F920F9233
:100670000FB60F9211242F933F934F935F936F9375
:100680007F938F939F93AF93BF93EF93FF9385EEE9
:1006900091E00E94DD01FF91EF91BF91AF919F9199
:1006A0008F917F916F915F914F913F912F910F901B
:1006B0000FBE0F901F9018951F920F920FB60F92BA
:1006C00011242F938F939F93EF93FF93E091F50164
:1006D000F091F6018081E091FB01F091FC0182FD37
:1006E0001BC090818091FE018F5F8F732091FF016D
:1006F000821741F0E091FE01F0E0EB51FE4F958F43
:100700008093FE01FF91EF919F918F912F910F9018
:100710000FBE0F901F9018958081F4CF789484B508
:10072000826084BD84B5816084BD85B5826085BDED
:1007300085B5816085BD80916E00816080936E007B
:10074000109281008091810082608093810080916D
:10075000810081608093810080918000816080931E
:1007600080008091B10084608093B1008091B000DE
:1007700081608093B00080917A00846080937A00D9
:1007800080917A00826080937A0080917A00816003
:1007900080937A0080917A00806880937A0010922A
:1007A000C10060E082E00E94090160E084E00E94F4
:1007B000090161E083E00E94090181E00E94B50027
:1007C000E091F501F091F60182E08083E091F10182
:1007D000F091F2011082E091F301F091F40180E1D7
:1007E00080831092FD01E091F901F091FA0186E019
:1007F0008083E091F701F091F8018081806180832E
:10080000E091F701F091F801808188608083E091A8
:10081000F701F091F801808180688083E091F70111
:10082000F091F80180818F7D808385E191E00E94C5
:10083000DE02C0E0D0E082E00E94E0006C0184E0D3
:100840000E94E0007C0187E291E00E946C02B60108
:100850000D2C000C880B990B97FF5AC00E94BD020B
:1008600086E391E00E946C02B7010F2C000C880B0C
:10087000990B97FF51C00E94BD0282E191E00E9456
:100880006C0221E0C216D10429F081E0E816F104DF
:1008900009F049C080E00E94B50081E991E0CA9466
:1008A000CD2829F4EA94EF28D9F588E491E00E9454
:1008B000DE020E943A014B015C0184E6C82ED12C75
:1008C000E12CF12C0E943A01681979098A099B09E7
:1008D000683E734081059105A8F321E0C21AD10852
:1008E000E108F10888EE880E83E0981EA11CB11C77
:1008F000C114D104E104F10429F7209709F49BCF36
:100900000E94C901882309F496CF0E94000093CF6A
:100910004AE00E947902A4CF4AE00E947902ADCF5A
:1009200081E791E0C4CF81E00E94B50081EB91E0C6
:10093000BECFE5EEF1E01382128288EE93E0A0E0F4
:10094000B0E084839583A683B78384E091E09183AC
:10095000808385EC90E09587848784EC90E097878E
:10096000868780EC90E0918B808B81EC90E0938B7C
:10097000828B82EC90E0958B848B86EC90E0978B59
:10098000868B118E128E138E148E0895A1E21A2E6C
:10099000AA1BBB1BFD010DC0AA1FBB1FEE1FFF1F23
:1009A000A217B307E407F50720F0A21BB30BE40B73
:1009B000F50B661F771F881F991F1A9469F76095BA
:1009C0007095809590959B01AC01BD01CF01089574
:1009D000EE0FFF1F0590F491E02D0994F894FFCFDE
:1009E00000000000FF015F018C014C02BD019B0172
:1009F000AF010D0A0041726475696E6F20556E6F0C
:100A0000206C6973746F0045737461646F20506962
:100A10006E20323A2000207C2045737461646F2080
:100A200050696E20343A200052656CC3A92061637E
:100A300074697661646F20284750494F20322079CD
:100A4000204750494F203420656E204849474829A7
:100A50000052656CC3A920616374697661646F207C
:100A6000284750494F203220656E20484947482981
:100A70000052656CC3A920616374697661646F205C
:100A8000284750494F203420656E2048494748295F
:100A90000052656CC3A920646573616374697661F3
:100AA000646F20284750494F203220792047504911
:0C0AB0004F203420656E204C4F57290069
:00000001FF
